{
  "contractName": "certificateVerification",
  "abi": [
    {
      "inputs": [],
      "stateMutability": "nonpayable",
      "type": "constructor"
    },
    {
      "inputs": [
        {
          "internalType": "bytes32",
          "name": "documenthash",
          "type": "bytes32"
        },
        {
          "internalType": "bytes32",
          "name": "orgId",
          "type": "bytes32"
        }
      ],
      "name": "addCertificate",
      "outputs": [
        {
          "internalType": "string",
          "name": "",
          "type": "string"
        }
      ],
      "stateMutability": "nonpayable",
      "type": "function"
    },
    {
      "inputs": [
        {
          "internalType": "bytes32",
          "name": "documenthash",
          "type": "bytes32"
        }
      ],
      "name": "verifyCertificates",
      "outputs": [
        {
          "internalType": "bytes32",
          "name": "",
          "type": "bytes32"
        },
        {
          "internalType": "bool",
          "name": "",
          "type": "bool"
        }
      ],
      "stateMutability": "view",
      "type": "function"
    },
    {
      "inputs": [
        {
          "internalType": "address",
          "name": "orgAddress",
          "type": "address"
        },
        {
          "internalType": "bytes32",
          "name": "orgId",
          "type": "bytes32"
        },
        {
          "internalType": "string",
          "name": "name",
          "type": "string"
        }
      ],
      "name": "addOrganization",
      "outputs": [
        {
          "internalType": "string",
          "name": "",
          "type": "string"
        }
      ],
      "stateMutability": "nonpayable",
      "type": "function"
    },
    {
      "inputs": [
        {
          "internalType": "address",
          "name": "stuAddress",
          "type": "address"
        },
        {
          "internalType": "bytes32",
          "name": "stuId",
          "type": "bytes32"
        },
        {
          "internalType": "string",
          "name": "name",
          "type": "string"
        }
      ],
      "name": "addStudent",
      "outputs": [
        {
          "internalType": "string",
          "name": "",
          "type": "string"
        }
      ],
      "stateMutability": "nonpayable",
      "type": "function"
    },
    {
      "inputs": [
        {
          "internalType": "address",
          "name": "orgAddress",
          "type": "address"
        },
        {
          "internalType": "bytes32",
          "name": "orgId",
          "type": "bytes32"
        },
        {
          "internalType": "string",
          "name": "name",
          "type": "string"
        }
      ],
      "name": "modifyOrganizationAddress",
      "outputs": [
        {
          "internalType": "string",
          "name": "",
          "type": "string"
        }
      ],
      "stateMutability": "nonpayable",
      "type": "function"
    },
    {
      "inputs": [
        {
          "internalType": "bytes32",
          "name": "orgId",
          "type": "bytes32"
        }
      ],
      "name": "getName",
      "outputs": [
        {
          "internalType": "string",
          "name": "",
          "type": "string"
        }
      ],
      "stateMutability": "view",
      "type": "function"
    }
  ],
  "bytecode": "0x608060405234801561001057600080fd5b5033600460006101000a81548173ffffffffffffffffffffffffffffffffffffffff021916908373ffffffffffffffffffffffffffffffffffffffff16021790555061173d806100616000396000f3fe608060405234801561001057600080fd5b50600436106100625760003560e01c80630e88d967146100675780632004f9ea1461009857806354b8d5e3146100c85780636f465c38146100f857806379dd18c414610128578063a91bf9de14610158575b600080fd5b610081600480360381019061007c9190610d8f565b610188565b60405161008f929190610de6565b60405180910390f35b6100b260048036038101906100ad9190610fb3565b61026b565b6040516100bf91906110a1565b60405180910390f35b6100e260048036038101906100dd9190610d8f565b610550565b6040516100ef91906110a1565b60405180910390f35b610112600480360381019061010d9190610fb3565b6106c8565b60405161011f91906110a1565b60405180910390f35b610142600480360381019061013d91906110c3565b6108a6565b60405161014f91906110a1565b60405180910390f35b610172600480360381019061016d9190610fb3565b610bc1565b60405161017f91906110a1565b60405180910390f35b60008060208060ff16146101d1576040517f08c379a00000000000000000000000000000000000000000000000000000000081526004016101c89061114f565b60405180910390fd5b6000806000858152602001908152602001600020604051806060016040529081600082015481526020016001820160009054906101000a900460ff16151515158152602001600282015481525050905080602001511561023c57806000015160019250925050610266565b60007f446f63756d656e74206973206e6f742076616c696400000000000000000000009092509250505b915091565b6060600460009054906101000a900473ffffffffffffffffffffffffffffffffffffffff1673ffffffffffffffffffffffffffffffffffffffff163373ffffffffffffffffffffffffffffffffffffffff16146102fd576040517f08c379a00000000000000000000000000000000000000000000000000000000081526004016102f4906111bb565b60405180910390fd5b60006001600085815260200190815260200160002060405180606001604052908160008201805461032d9061120a565b80601f01602080910402602001604051908101604052809291908181526020018280546103599061120a565b80156103a65780601f1061037b576101008083540402835291602001916103a6565b820191906000526020600020905b81548152906001019060200180831161038957829003601f168201915b505050505081526020016001820160009054906101000a900473ffffffffffffffffffffffffffffffffffffffff1673ffffffffffffffffffffffffffffffffffffffff1673ffffffffffffffffffffffffffffffffffffffff1681526020016001820160149054906101000a900460ff16151515158152505090508060400151610466576040517f08c379a000000000000000000000000000000000000000000000000000000000815260040161045d90611287565b60405180910390fd5b60405180606001604052808481526020018673ffffffffffffffffffffffffffffffffffffffff168152602001600115158152506001600086815260200190815260200160002060008201518160000190816104c2919061145d565b5060208201518160010160006101000a81548173ffffffffffffffffffffffffffffffffffffffff021916908373ffffffffffffffffffffffffffffffffffffffff16021790555060408201518160010160146101000a81548160ff0219169083151502179055509050506040518060600160405280602881526020016116e0602891399150509392505050565b60606000600160008481526020019081526020016000206040518060600160405290816000820180546105829061120a565b80601f01602080910402602001604051908101604052809291908181526020018280546105ae9061120a565b80156105fb5780601f106105d0576101008083540402835291602001916105fb565b820191906000526020600020905b8154815290600101906020018083116105de57829003601f168201915b505050505081526020016001820160009054906101000a900473ffffffffffffffffffffffffffffffffffffffff1673ffffffffffffffffffffffffffffffffffffffff1673ffffffffffffffffffffffffffffffffffffffff1681526020016001820160149054906101000a900460ff161515151581525050905080604001516106bb576040517f08c379a00000000000000000000000000000000000000000000000000000000081526004016106b290611287565b60405180910390fd5b8060000151915050919050565b6060600460009054906101000a900473ffffffffffffffffffffffffffffffffffffffff1673ffffffffffffffffffffffffffffffffffffffff163373ffffffffffffffffffffffffffffffffffffffff161461075a576040517f08c379a0000000000000000000000000000000000000000000000000000000008152600401610751906111bb565b60405180910390fd5b60208060ff16146107a0576040517f08c379a00000000000000000000000000000000000000000000000000000000081526004016107979061157b565b60405180910390fd5b60405180606001604052808381526020018573ffffffffffffffffffffffffffffffffffffffff168152602001600115158152506001600085815260200190815260200160002060008201518160000190816107fc919061145d565b5060208201518160010160006101000a81548173ffffffffffffffffffffffffffffffffffffffff021916908373ffffffffffffffffffffffffffffffffffffffff16021790555060408201518160010160146101000a81548160ff0219169083151502179055509050506040518060400160405280601e81526020017f4f7267616e697a6174696f6e2041646465642053756365737366756c6c79000081525090509392505050565b60606000600160008481526020019081526020016000206040518060600160405290816000820180546108d89061120a565b80601f01602080910402602001604051908101604052809291908181526020018280546109049061120a565b80156109515780601f1061092657610100808354040283529160200191610951565b820191906000526020600020905b81548152906001019060200180831161093457829003601f168201915b505050505081526020016001820160009054906101000a900473ffffffffffffffffffffffffffffffffffffffff1673ffffffffffffffffffffffffffffffffffffffff1673ffffffffffffffffffffffffffffffffffffffff1681526020016001820160149054906101000a900460ff16151515158152505090506000806000868152602001908152602001600020604051806060016040529081600082015481526020016001820160009054906101000a900460ff161515151581526020016002820154815250509050816020015173ffffffffffffffffffffffffffffffffffffffff163373ffffffffffffffffffffffffffffffffffffffff1614610a8f576040517f08c379a0000000000000000000000000000000000000000000000000000000008152600401610a86906115e7565b60405180910390fd5b60208060ff1614610ad5576040517f08c379a0000000000000000000000000000000000000000000000000000000008152600401610acc9061114f565b60405180910390fd5b806020015115610b1a576040517f08c379a0000000000000000000000000000000000000000000000000000000008152600401610b1190611653565b60405180910390fd5b6040518060600160405280858152602001600115158152602001428152506000808781526020019081526020016000206000820151816000015560208201518160010160006101000a81548160ff021916908315150217905550604082015181600201559050506040518060400160405280601f81526020017f446f63756d656e7420697320616464656420696e20626c6f636b636861696e008152509250505092915050565b6060600460009054906101000a900473ffffffffffffffffffffffffffffffffffffffff1673ffffffffffffffffffffffffffffffffffffffff163373ffffffffffffffffffffffffffffffffffffffff1614610c53576040517f08c379a0000000000000000000000000000000000000000000000000000000008152600401610c4a906111bb565b60405180910390fd5b60208060ff1614610c99576040517f08c379a0000000000000000000000000000000000000000000000000000000008152600401610c90906116bf565b60405180910390fd5b600060026000858152602001908152602001600020905082816000019081610cc1919061145d565b50848160010160006101000a81548173ffffffffffffffffffffffffffffffffffffffff021916908373ffffffffffffffffffffffffffffffffffffffff1602179055506040518060400160405280601e81526020017f4f7267616e697a6174696f6e2041646465642053756365737366756c6c7900008152509150509392505050565b6000604051905090565b600080fd5b600080fd5b6000819050919050565b610d6c81610d59565b8114610d7757600080fd5b50565b600081359050610d8981610d63565b92915050565b600060208284031215610da557610da4610d4f565b5b6000610db384828501610d7a565b91505092915050565b610dc581610d59565b82525050565b60008115159050919050565b610de081610dcb565b82525050565b6000604082019050610dfb6000830185610dbc565b610e086020830184610dd7565b9392505050565b600073ffffffffffffffffffffffffffffffffffffffff82169050919050565b6000610e3a82610e0f565b9050919050565b610e4a81610e2f565b8114610e5557600080fd5b50565b600081359050610e6781610e41565b92915050565b600080fd5b600080fd5b6000601f19601f8301169050919050565b7f4e487b7100000000000000000000000000000000000000000000000000000000600052604160045260246000fd5b610ec082610e77565b810181811067ffffffffffffffff82111715610edf57610ede610e88565b5b80604052505050565b6000610ef2610d45565b9050610efe8282610eb7565b919050565b600067ffffffffffffffff821115610f1e57610f1d610e88565b5b610f2782610e77565b9050602081019050919050565b82818337600083830152505050565b6000610f56610f5184610f03565b610ee8565b905082815260208101848484011115610f7257610f71610e72565b5b610f7d848285610f34565b509392505050565b600082601f830112610f9a57610f99610e6d565b5b8135610faa848260208601610f43565b91505092915050565b600080600060608486031215610fcc57610fcb610d4f565b5b6000610fda86828701610e58565b9350506020610feb86828701610d7a565b925050604084013567ffffffffffffffff81111561100c5761100b610d54565b5b61101886828701610f85565b9150509250925092565b600081519050919050565b600082825260208201905092915050565b60005b8381101561105c578082015181840152602081019050611041565b60008484015250505050565b600061107382611022565b61107d818561102d565b935061108d81856020860161103e565b61109681610e77565b840191505092915050565b600060208201905081810360008301526110bb8184611068565b905092915050565b600080604083850312156110da576110d9610d4f565b5b60006110e885828601610d7a565b92505060206110f985828601610d7a565b9150509250929050565b7f4861736820697320696e76616c69640000000000000000000000000000000000600082015250565b6000611139600f8361102d565b915061114482611103565b602082019050919050565b600060208201905081810360008301526111688161112c565b9050919050565b7f417574686f72697a61696f6e204572726f720000000000000000000000000000600082015250565b60006111a560128361102d565b91506111b08261116f565b602082019050919050565b600060208201905081810360008301526111d481611198565b9050919050565b7f4e487b7100000000000000000000000000000000000000000000000000000000600052602260045260246000fd5b6000600282049050600182168061122257607f821691505b602082108103611235576112346111db565b5b50919050565b7f4f7267616e697a6174696f6e73206973206e6f74207265676973746572656400600082015250565b6000611271601f8361102d565b915061127c8261123b565b602082019050919050565b600060208201905081810360008301526112a081611264565b9050919050565b60008190508160005260206000209050919050565b60006020601f8301049050919050565b600082821b905092915050565b6000600883026113097fffffffffffffffffffffffffffffffffffffffffffffffffffffffffffffffff826112cc565b61131386836112cc565b95508019841693508086168417925050509392505050565b6000819050919050565b6000819050919050565b600061135a6113556113508461132b565b611335565b61132b565b9050919050565b6000819050919050565b6113748361133f565b61138861138082611361565b8484546112d9565b825550505050565b600090565b61139d611390565b6113a881848461136b565b505050565b5b818110156113cc576113c1600082611395565b6001810190506113ae565b5050565b601f821115611411576113e2816112a7565b6113eb846112bc565b810160208510156113fa578190505b61140e611406856112bc565b8301826113ad565b50505b505050565b600082821c905092915050565b600061143460001984600802611416565b1980831691505092915050565b600061144d8383611423565b9150826002028217905092915050565b61146682611022565b67ffffffffffffffff81111561147f5761147e610e88565b5b611489825461120a565b6114948282856113d0565b600060209050601f8311600181146114c757600084156114b5578287015190505b6114bf8582611441565b865550611527565b601f1984166114d5866112a7565b60005b828110156114fd578489015182556001820191506020850194506020810190506114d8565b8683101561151a5784890151611516601f891682611423565b8355505b6001600288020188555050505b505050505050565b7f4f7267616e697a6174696f6e20496420697320696e76616c6964000000000000600082015250565b6000611565601a8361102d565b91506115708261152f565b602082019050919050565b6000602082019050818103600083015261159481611558565b9050919050565b7f417574686f72697a6174696f6e204572726f7200000000000000000000000000600082015250565b60006115d160138361102d565b91506115dc8261159b565b602082019050919050565b60006020820190508181036000830152611600816115c4565b9050919050565b7f446f63756d656e7420616c726561647920766572696669656400000000000000600082015250565b600061163d60198361102d565b915061164882611607565b602082019050919050565b6000602082019050818103600083015261166c81611630565b9050919050565b7f53747564656e7420496420697320696e76616c69640000000000000000000000600082015250565b60006116a960158361102d565b91506116b482611673565b602082019050919050565b600060208201905081810360008301526116d88161169c565b905091905056fe4f7267616e697a6174696f6e204164647265737320557064617465642053756365737366756c6c79a2646970667358221220c0ea0e8e3cae8e33e961a93d5316ed7303324f363e20f64794662f7263481db064736f6c63430008130033",
  "immutableReferences": {},
  "source": "// SPDX-License-Identifier: MIT\npragma solidity ^0.8.0;\n\ncontract certificateVerification\n\n{\n\nstruct organization{\n    string name;\n    address orgAddress;\n    bool exists;\n}\n\nstruct student\n{\n    string name;\n    address studentaddress;\n    mapping (bytes32=> Document) certf ;\n    mapping (bytes32=> organization) sorg;\n}\n\nstruct Document {\n    bytes32 orgId;\n    bool verified;\n    uint Date;\n}\n\nmodifier owneronly{\n    require(msg.sender==owner,\"Authorizaion Error\");\n    _;\n\n}\n\nmapping(bytes32=> Document) private Documents;\nmapping(bytes32 => organization) private organizations;\nmapping(bytes32=>student) private students;\nmapping(bytes32=>string ) private names;\n\naddress private owner;\n\nconstructor() public {\n    owner =msg.sender;\n}\n\nfunction addCertificate(bytes32 documenthash,bytes32 orgId) public returns (string memory){\norganization memory orgData =organizations[orgId];\nDocument memory docData=Documents[documenthash];\nrequire(msg.sender==orgData.orgAddress,\"Authorization Error\");\nrequire(documenthash.length==32,\"Hash is invalid\");\nrequire(!docData.verified,\"Document already verified\");\nDocuments[documenthash]=Document(orgId,true,block.timestamp);\nreturn \"Document is added in blockchain\";\n}\n\nfunction verifyCertificates(bytes32 documenthash ) public view returns (bytes32 , bool){\nrequire(documenthash.length==32,\"Hash is invalid\");\nDocument memory docData =Documents[documenthash];\nif(docData.verified)\n{\n    return (docData.orgId,true);\n}\nelse\n{\n    return (\"Document is not valid\",false);\n}\n}\n\n\n\nfunction addOrganization(address orgAddress , bytes32 orgId,string memory name) public owneronly() returns(string memory){\n    require(orgId.length==32,\"Organization Id is invalid\");\n    organizations[orgId]=organization(name,orgAddress,true);\n    return \"Organization Added Sucessfully\";\n\n}\n\n\nfunction addStudent(address stuAddress , bytes32 stuId,string memory name) public owneronly() returns(string memory){\n    require(stuId.length==32,\"Student Id is invalid\");\n    student storage st=students[stuId];\n    st.name=name;\n    st.studentaddress=stuAddress;\n   // students[stuId]=st;\n    //organizations[orgId]=organization(name,orgAddress,true);\n    return \"Organization Added Sucessfully\";\n\n}\n\nfunction modifyOrganizationAddress(address orgAddress ,bytes32 orgId,string memory name) public owneronly() returns (string memory)\n{\n    organization memory orgData=organizations[orgId];\n    require(orgData.exists,\"Organizations is not registered\");\n    organizations[orgId]=organization(name,orgAddress,true);\n    return \"Organization Address Updated Sucessfully\";\n\n}\n\nfunction getName(bytes32 orgId) public view returns (string memory)\n{\norganization memory orgData =organizations[orgId];\nrequire(orgData.exists,\"Organizations is not registered\");\nreturn orgData.name;\n\n}\n\n}\n",
  "sourcePath": "/home/college/Documents/VIII SEMESTER/Major Project/nft project/contracts/work3.sol",
  "compiler": {
    "name": "solc",
    "version": "0.8.19+commit.7dd6d404.Emscripten.clang"
  },
  "schemaVersion": "3.4.13",
  "updatedAt": "2023-04-20T20:00:24.191Z",
  "devdoc": {
    "kind": "dev",
    "methods": {},
    "version": 1
  },
  "userdoc": {
    "kind": "user",
    "methods": {},
    "version": 1
  }
}