{
  "contractName": "work1",
  "abi": [
    {
      "inputs": [],
      "stateMutability": "nonpayable",
      "type": "constructor"
    },
    {
      "inputs": [],
      "name": "addBalance",
      "outputs": [
        {
          "internalType": "uint256",
          "name": "",
          "type": "uint256"
        }
      ],
      "stateMutability": "payable",
      "type": "function"
    },
    {
      "inputs": [],
      "name": "getBalance",
      "outputs": [
        {
          "internalType": "uint256",
          "name": "",
          "type": "uint256"
        }
      ],
      "stateMutability": "view",
      "type": "function"
    },
    {
      "inputs": [
        {
          "internalType": "address",
          "name": "recipient",
          "type": "address"
        },
        {
          "internalType": "uint256",
          "name": "amount",
          "type": "uint256"
        }
      ],
      "name": "Transfer",
      "outputs": [],
      "stateMutability": "nonpayable",
      "type": "function"
    },
    {
      "inputs": [],
      "name": "withdraw",
      "outputs": [],
      "stateMutability": "nonpayable",
      "type": "function"
    }
  ],
  "bytecode": "0x608060405234801561001057600080fd5b50336000806101000a81548173ffffffffffffffffffffffffffffffffffffffff021916908373ffffffffffffffffffffffffffffffffffffffff16021790555061094c806100606000396000f3fe60806040526004361061003f5760003560e01c806312065fe0146100445780633ccfd60b1461006f57806369ca02dd14610086578063b163cc38146100af575b600080fd5b34801561005057600080fd5b506100596100cd565b6040516100669190610568565b60405180910390f35b34801561007b57600080fd5b50610084610114565b005b34801561009257600080fd5b506100ad60048036038101906100a89190610612565b6101cb565b005b6100b76102ca565b6040516100c49190610568565b60405180910390f35b6000600160003373ffffffffffffffffffffffffffffffffffffffff1673ffffffffffffffffffffffffffffffffffffffff16815260200190815260200160002054905090565b60003373ffffffffffffffffffffffffffffffffffffffff16670de0b6b3a764000060405161014290610683565b60006040518083038185875af1925050503d806000811461017f576040519150601f19603f3d011682016040523d82523d6000602084013e610184565b606091505b50509050806101c8576040517f08c379a00000000000000000000000000000000000000000000000000000000081526004016101bf906106f5565b60405180910390fd5b50565b8173ffffffffffffffffffffffffffffffffffffffff163373ffffffffffffffffffffffffffffffffffffffff1603610239576040517f08c379a000000000000000000000000000000000000000000000000000000000815260040161023090610761565b60405180910390fd5b80600160003373ffffffffffffffffffffffffffffffffffffffff1673ffffffffffffffffffffffffffffffffffffffff1681526020019081526020016000205410156102bb576040517f08c379a00000000000000000000000000000000000000000000000000000000081526004016102b2906107f3565b60405180910390fd5b6102c633838361042e565b5050565b60008060009054906101000a900473ffffffffffffffffffffffffffffffffffffffff1673ffffffffffffffffffffffffffffffffffffffff163373ffffffffffffffffffffffffffffffffffffffff161461035b576040517f08c379a00000000000000000000000000000000000000000000000000000000081526004016103529061085f565b60405180910390fd5b34600160003373ffffffffffffffffffffffffffffffffffffffff1673ffffffffffffffffffffffffffffffffffffffff168152602001908152602001600020546103a691906108ae565b600160003373ffffffffffffffffffffffffffffffffffffffff1673ffffffffffffffffffffffffffffffffffffffff16815260200190815260200160002081905550600160003373ffffffffffffffffffffffffffffffffffffffff1673ffffffffffffffffffffffffffffffffffffffff16815260200190815260200160002054905090565b80600160008573ffffffffffffffffffffffffffffffffffffffff1673ffffffffffffffffffffffffffffffffffffffff1681526020019081526020016000205461047991906108e2565b600160008573ffffffffffffffffffffffffffffffffffffffff1673ffffffffffffffffffffffffffffffffffffffff1681526020019081526020016000208190555080600160008473ffffffffffffffffffffffffffffffffffffffff1673ffffffffffffffffffffffffffffffffffffffff1681526020019081526020016000205461050791906108ae565b600160008473ffffffffffffffffffffffffffffffffffffffff1673ffffffffffffffffffffffffffffffffffffffff16815260200190815260200160002081905550505050565b6000819050919050565b6105628161054f565b82525050565b600060208201905061057d6000830184610559565b92915050565b600080fd5b600073ffffffffffffffffffffffffffffffffffffffff82169050919050565b60006105b382610588565b9050919050565b6105c3816105a8565b81146105ce57600080fd5b50565b6000813590506105e0816105ba565b92915050565b6105ef8161054f565b81146105fa57600080fd5b50565b60008135905061060c816105e6565b92915050565b6000806040838503121561062957610628610583565b5b6000610637858286016105d1565b9250506020610648858286016105fd565b9150509250929050565b600081905092915050565b50565b600061066d600083610652565b91506106788261065d565b600082019050919050565b600061068e82610660565b9150819050919050565b600082825260208201905092915050565b7f7769746864726177206661696c65640000000000000000000000000000000000600082015250565b60006106df600f83610698565b91506106ea826106a9565b602082019050919050565b6000602082019050818103600083015261070e816106d2565b9050919050565b7f43616e2774205472616e736665722021212053656c66204163636f756e742e00600082015250565b600061074b601f83610698565b915061075682610715565b602082019050919050565b6000602082019050818103600083015261077a8161073e565b9050919050565b7f4e6f2c2057652043616e2774205472616e736665722e20496e7375666669636960008201527f656e742042616c616e6365202121000000000000000000000000000000000000602082015250565b60006107dd602e83610698565b91506107e882610781565b604082019050919050565b6000602082019050818103600083015261080c816107d0565b9050919050565b7f596573206974206973204f776e6572204163636f756e74202121000000000000600082015250565b6000610849601a83610698565b915061085482610813565b602082019050919050565b600060208201905081810360008301526108788161083c565b9050919050565b7f4e487b7100000000000000000000000000000000000000000000000000000000600052601160045260246000fd5b60006108b98261054f565b91506108c48361054f565b92508282019050808211156108dc576108db61087f565b5b92915050565b60006108ed8261054f565b91506108f88361054f565b92508282039050818111156109105761090f61087f565b5b9291505056fea2646970667358221220d3ea02f3b456ba4b35e21836fc57c729953ac0352e7c95c41d074d68fa15853a64736f6c63430008130033",
  "immutableReferences": {},
  "source": "pragma solidity >=0.7.0 <0.9.0;\n \ncontract work1\n{\n    address Owner;\n \n    // We are creating the Mapping for the Adding & Transfer Amount in Account\n    mapping(address=>uint)Balance;\n \n    // constructor for the address of the Owner\n    constructor()\n    {\n        Owner = msg.sender;\n    }\n \n    // function for adding the Ethereum in Account\n    function addBalance() public payable returns(uint)\n    {\n        // first we have to check the is it Owners Account or Not\n        require(msg.sender == Owner, \"Yes it is Owner Account !!\");\n        Balance[msg.sender] = Balance[msg.sender] + msg.value;\n        \n        return Balance[msg.sender];\n    }\n \n    // function for Get the Balance from an Account\n    function getBalance() public view returns(uint)\n    {\n        return Balance[msg.sender];\n    }\n \n    // to transfer the Amount from Owner to Recipient\n    function Transfer(address recipient, uint amount) public\n    {\n        // check the Self account is or not\n        require(msg.sender != recipient, \"Can't Transfer !! Self Account.\");\n \n        // check the owner has balance is available or not\n        require(Balance[msg.sender] >= amount, \"No, We Can't Transfer. Insufficient Balance !!\");\n \n        _transfer(msg.sender, recipient, amount);\n    }\n \n    function _transfer(address From, address To, uint Amount) private\n    {\n        //(bool sucesscall, bytes data) = );\n        //require(sucesscall,\"failed\");\n        Balance[From] = Balance[From] - Amount;\n        Balance[To] = Balance[To] + Amount;\n    }\n    function withdraw () public \n    {\n        (bool callsucess , ) =payable(msg.sender).call{value:1e18}(\"\");\n        require(callsucess,\"withdraw failed\");\n    }\n \n}\n",
  "sourcePath": "/home/college/Documents/VIII SEMESTER/Major Project/nft project/contracts/work1.sol",
  "compiler": {
    "name": "solc",
    "version": "0.8.19+commit.7dd6d404.Emscripten.clang"
  },
  "schemaVersion": "3.4.13",
  "updatedAt": "2023-03-12T09:39:56.505Z",
  "devdoc": {
    "kind": "dev",
    "methods": {},
    "version": 1
  },
  "userdoc": {
    "kind": "user",
    "methods": {},
    "version": 1
  }
}